{
  "_format": "hh-sol-artifact-1",
  "contractName": "Oracle",
  "sourceName": "contracts/Oracle.sol",
  "abi": [
    {
      "anonymous": false,
      "inputs": [
        {
          "indexed": false,
          "internalType": "uint256",
          "name": "oracleId",
          "type": "uint256"
        },
        {
          "indexed": false,
          "internalType": "string",
          "name": "requestId",
          "type": "string"
        },
        {
          "indexed": false,
          "internalType": "string",
          "name": "requestData",
          "type": "string"
        }
      ],
      "name": "NewRequest",
      "type": "event"
    },
    {
      "anonymous": false,
      "inputs": [
        {
          "indexed": false,
          "internalType": "uint256",
          "name": "oracleId",
          "type": "uint256"
        },
        {
          "indexed": false,
          "internalType": "string",
          "name": "requestId",
          "type": "string"
        },
        {
          "indexed": false,
          "internalType": "string",
          "name": "newRequestData",
          "type": "string"
        }
      ],
      "name": "NewTopicForRequest",
      "type": "event"
    },
    {
      "anonymous": false,
      "inputs": [
        {
          "indexed": false,
          "internalType": "uint256",
          "name": "oracleId",
          "type": "uint256"
        },
        {
          "indexed": false,
          "internalType": "string",
          "name": "requestId",
          "type": "string"
        },
        {
          "indexed": false,
          "internalType": "string",
          "name": "updateData",
          "type": "string"
        }
      ],
      "name": "OracleResponse",
      "type": "event"
    },
    {
      "anonymous": false,
      "inputs": [
        {
          "indexed": false,
          "internalType": "uint256",
          "name": "oracleId",
          "type": "uint256"
        },
        {
          "indexed": false,
          "internalType": "string",
          "name": "where",
          "type": "string"
        }
      ],
      "name": "RequestId",
      "type": "event"
    },
    {
      "inputs": [
        {
          "internalType": "string",
          "name": "string1",
          "type": "string"
        },
        {
          "internalType": "string",
          "name": "string2",
          "type": "string"
        }
      ],
      "name": "compareStrings",
      "outputs": [
        {
          "internalType": "bool",
          "name": "",
          "type": "bool"
        }
      ],
      "stateMutability": "pure",
      "type": "function"
    },
    {
      "inputs": [
        {
          "internalType": "string",
          "name": "_requestId",
          "type": "string"
        },
        {
          "internalType": "string",
          "name": "_requestData",
          "type": "string"
        },
        {
          "internalType": "function (string,string) external",
          "name": "callback",
          "type": "function"
        },
        {
          "internalType": "address",
          "name": "_cAddress",
          "type": "address"
        }
      ],
      "name": "createRequest",
      "outputs": [],
      "stateMutability": "nonpayable",
      "type": "function"
    },
    {
      "inputs": [
        {
          "internalType": "string",
          "name": "_requestId",
          "type": "string"
        },
        {
          "internalType": "string",
          "name": "_newRequestData",
          "type": "string"
        }
      ],
      "name": "newTopicForRequest",
      "outputs": [],
      "stateMutability": "nonpayable",
      "type": "function"
    },
    {
      "inputs": [
        {
          "internalType": "uint256",
          "name": "_oracleId",
          "type": "uint256"
        },
        {
          "internalType": "string",
          "name": "_requestId",
          "type": "string"
        },
        {
          "internalType": "string",
          "name": "_updateData",
          "type": "string"
        }
      ],
      "name": "oracleResponse",
      "outputs": [],
      "stateMutability": "nonpayable",
      "type": "function"
    }
  ],
  "bytecode": "0x6080604052600060015534801561001557600080fd5b5061162a806100256000396000f3fe608060405234801561001057600080fd5b506004361061004c5760003560e01c80638e14c10914610051578063bed34bba1461006d578063cd9991711461009d578063ee31e601146100b9575b600080fd5b61006b60048036038101906100669190610a47565b6100d5565b005b61008760048036038101906100829190610aeb565b61033a565b6040516100949190610b7e565b60405180910390f35b6100b760048036038101906100b29190610aeb565b610355565b005b6100d360048036038101906100ce9190610bcf565b610543565b005b7f481d744cf846b1ead906b11efdb75294b8727c823981b0b0e83e58fec940a96e6001546040516101069190610cc6565b60405180910390a160006040518060a001604052806001548152602001878152602001868152602001858563ffffffff169060201b1760401b81526020018373ffffffffffffffffffffffffffffffffffffffff1681525090806001815401808255809150506001900390600052602060002090600502016000909190919091506000820151816000015560208201518160010190816101a69190610f0b565b5060408201518160020190816101bc9190610f0b565b5060608201518060601c9060401c63ffffffff168260030160006101000a81548177ffffffffffffffffffffffffffffffffffffffffffffffff02191690848463ffffffff169073ffffffffffffffffffffffffffffffffffffffff1660201b1702179055505060808201518160040160006101000a81548173ffffffffffffffffffffffffffffffffffffffff021916908373ffffffffffffffffffffffffffffffffffffffff16021790555050507f0312239616abfb14f7ffa065155abb0ca047274d86c965890db4c8a48b8ce4b660015486866040516102a193929190611040565b60405180910390a17f481d744cf846b1ead906b11efdb75294b8727c823981b0b0e83e58fec940a96e6001546040516102da91906110d1565b60405180910390a1600160008154809291906102f59061112e565b91905055507f481d744cf846b1ead906b11efdb75294b8727c823981b0b0e83e58fec940a96e60015460405161032b91906111c2565b60405180910390a15050505050565b60008180519060200120838051906020012014905092915050565b7f481d744cf846b1ead906b11efdb75294b8727c823981b0b0e83e58fec940a96e600154604051610386919061123c565b60405180910390a16000808054905090506000805b82811015610481576001151561045e600083815481106103be576103bd61126a565b5b906000526020600020906005020160010180546103da90610d2e565b80601f016020809104026020016040519081016040528092919081815260200182805461040690610d2e565b80156104535780601f1061042857610100808354040283529160200191610453565b820191906000526020600020905b81548152906001019060200180831161043657829003601f168201915b50505050508761033a565b15150361046e5760019150610481565b80806104799061112e565b91505061039b565b60011515821515146104c8576040517f08c379a00000000000000000000000000000000000000000000000000000000081526004016104bf9061130b565b60405180910390fd5b7f4f8f20a4be1323a0c9ef76d7c503919a147f3c45795fe2b0a4e6c01cd30dfe178186866040516104fb93929190611040565b60405180910390a17f481d744cf846b1ead906b11efdb75294b8727c823981b0b0e83e58fec940a96e6001546040516105349190611377565b60405180910390a15050505050565b7f481d744cf846b1ead906b11efdb75294b8727c823981b0b0e83e58fec940a96e60015460405161057491906113f1565b60405180910390a16000808054905090508084106105c7576040517f08c379a00000000000000000000000000000000000000000000000000000000081526004016105be90611491565b60405180910390fd5b60008085815481106105dc576105db61126a565b5b906000526020600020906005020190506001151561068682600101805461060290610d2e565b80601f016020809104026020016040519081016040528092919081815260200182805461062e90610d2e565b801561067b5780601f106106505761010080835404028352916020019161067b565b820191906000526020600020905b81548152906001019060200180831161065e57829003601f168201915b50505050508661033a565b1515146106c8576040517f08c379a00000000000000000000000000000000000000000000000000000000081526004016106bf90611523565b60405180910390fd5b8060030160009054906101000a90048060201c73ffffffffffffffffffffffffffffffffffffffff169063ffffffff1685856040518363ffffffff1660e01b8152600401610717929190611543565b600060405180830381600087803b15801561073157600080fd5b505af1158015610745573d6000803e3d6000fd5b505050507f90f60d73e44e3709f4661e9e765aca21cc4c4c632d0a14c8e3fd9c8b6311c8b485858560405161077c93929190611040565b60405180910390a17f481d744cf846b1ead906b11efdb75294b8727c823981b0b0e83e58fec940a96e6001546040516107b591906115c6565b60405180910390a15050505050565b6000604051905090565b600080fd5b600080fd5b600080fd5b600080fd5b6000601f19601f8301169050919050565b7f4e487b7100000000000000000000000000000000000000000000000000000000600052604160045260246000fd5b61082b826107e2565b810181811067ffffffffffffffff8211171561084a576108496107f3565b5b80604052505050565b600061085d6107c4565b90506108698282610822565b919050565b600067ffffffffffffffff821115610889576108886107f3565b5b610892826107e2565b9050602081019050919050565b82818337600083830152505050565b60006108c16108bc8461086e565b610853565b9050828152602081018484840111156108dd576108dc6107dd565b5b6108e884828561089f565b509392505050565b600082601f830112610905576109046107d8565b5b81356109158482602086016108ae565b91505092915050565b60007fffffffffffffffffffffffffffffffffffffffffffffffff000000000000000082169050919050565b60006109558261091e565b9050919050565b6109658161094a565b811461097057600080fd5b50565b6000813590506109828161095c565b92915050565b60008160201c9050919050565b60008160401c9050919050565b6000806109ae83610995565b925063ffffffff831690506109c283610988565b9150915091565b6000806109de6109d98585610973565b6109a2565b915091509250929050565b600073ffffffffffffffffffffffffffffffffffffffff82169050919050565b6000610a14826109e9565b9050919050565b610a2481610a09565b8114610a2f57600080fd5b50565b600081359050610a4181610a1b565b92915050565b600080600080600060808688031215610a6357610a626107ce565b5b600086013567ffffffffffffffff811115610a8157610a806107d3565b5b610a8d888289016108f0565b955050602086013567ffffffffffffffff811115610aae57610aad6107d3565b5b610aba888289016108f0565b9450506040610acb888289016109c9565b93509350506060610ade88828901610a32565b9150509295509295909350565b60008060408385031215610b0257610b016107ce565b5b600083013567ffffffffffffffff811115610b2057610b1f6107d3565b5b610b2c858286016108f0565b925050602083013567ffffffffffffffff811115610b4d57610b4c6107d3565b5b610b59858286016108f0565b9150509250929050565b60008115159050919050565b610b7881610b63565b82525050565b6000602082019050610b936000830184610b6f565b92915050565b6000819050919050565b610bac81610b99565b8114610bb757600080fd5b50565b600081359050610bc981610ba3565b92915050565b600080600060608486031215610be857610be76107ce565b5b6000610bf686828701610bba565b935050602084013567ffffffffffffffff811115610c1757610c166107d3565b5b610c23868287016108f0565b925050604084013567ffffffffffffffff811115610c4457610c436107d3565b5b610c50868287016108f0565b9150509250925092565b610c6381610b99565b82525050565b600082825260208201905092915050565b7f4352203100000000000000000000000000000000000000000000000000000000600082015250565b6000610cb0600483610c69565b9150610cbb82610c7a565b602082019050919050565b6000604082019050610cdb6000830184610c5a565b8181036020830152610cec81610ca3565b905092915050565b600081519050919050565b7f4e487b7100000000000000000000000000000000000000000000000000000000600052602260045260246000fd5b60006002820490506001821680610d4657607f821691505b602082108103610d5957610d58610cff565b5b50919050565b60008190508160005260206000209050919050565b60006020601f8301049050919050565b600082821b905092915050565b600060088302610dc17fffffffffffffffffffffffffffffffffffffffffffffffffffffffffffffffff82610d84565b610dcb8683610d84565b95508019841693508086168417925050509392505050565b6000819050919050565b6000610e08610e03610dfe84610b99565b610de3565b610b99565b9050919050565b6000819050919050565b610e2283610ded565b610e36610e2e82610e0f565b848454610d91565b825550505050565b600090565b610e4b610e3e565b610e56818484610e19565b505050565b5b81811015610e7a57610e6f600082610e43565b600181019050610e5c565b5050565b601f821115610ebf57610e9081610d5f565b610e9984610d74565b81016020851015610ea8578190505b610ebc610eb485610d74565b830182610e5b565b50505b505050565b600082821c905092915050565b6000610ee260001984600802610ec4565b1980831691505092915050565b6000610efb8383610ed1565b9150826002028217905092915050565b610f1482610cf4565b67ffffffffffffffff811115610f2d57610f2c6107f3565b5b610f378254610d2e565b610f42828285610e7e565b600060209050601f831160018114610f755760008415610f63578287015190505b610f6d8582610eef565b865550610fd5565b601f198416610f8386610d5f565b60005b82811015610fab57848901518255600182019150602085019450602081019050610f86565b86831015610fc85784890151610fc4601f891682610ed1565b8355505b6001600288020188555050505b505050505050565b60005b83811015610ffb578082015181840152602081019050610fe0565b60008484015250505050565b600061101282610cf4565b61101c8185610c69565b935061102c818560208601610fdd565b611035816107e2565b840191505092915050565b60006060820190506110556000830186610c5a565b81810360208301526110678185611007565b9050818103604083015261107b8184611007565b9050949350505050565b7f4352203200000000000000000000000000000000000000000000000000000000600082015250565b60006110bb600483610c69565b91506110c682611085565b602082019050919050565b60006040820190506110e66000830184610c5a565b81810360208301526110f7816110ae565b905092915050565b7f4e487b7100000000000000000000000000000000000000000000000000000000600052601160045260246000fd5b600061113982610b99565b91507fffffffffffffffffffffffffffffffffffffffffffffffffffffffffffffffff820361116b5761116a6110ff565b5b600182019050919050565b7f4352203300000000000000000000000000000000000000000000000000000000600082015250565b60006111ac600483610c69565b91506111b782611176565b602082019050919050565b60006040820190506111d76000830184610c5a565b81810360208301526111e88161119f565b905092915050565b7f4e54522031000000000000000000000000000000000000000000000000000000600082015250565b6000611226600583610c69565b9150611231826111f0565b602082019050919050565b60006040820190506112516000830184610c5a565b818103602083015261126281611219565b905092915050565b7f4e487b7100000000000000000000000000000000000000000000000000000000600052603260045260246000fd5b7f6e657752657175657374546f70696320636f756c64206e6f742066696e64207260008201527f6571756573740000000000000000000000000000000000000000000000000000602082015250565b60006112f5602683610c69565b915061130082611299565b604082019050919050565b60006020820190508181036000830152611324816112e8565b9050919050565b7f4e54522032000000000000000000000000000000000000000000000000000000600082015250565b6000611361600583610c69565b915061136c8261132b565b602082019050919050565b600060408201905061138c6000830184610c5a565b818103602083015261139d81611354565b905092915050565b7f4f52203100000000000000000000000000000000000000000000000000000000600082015250565b60006113db600483610c69565b91506113e6826113a5565b602082019050919050565b60006040820190506114066000830184610c5a565b8181036020830152611417816113ce565b905092915050565b7f4f7261636c65526573706f6e736528293a2053797374656d204572726f723a2060008201527f4f7261636c65204964206e6f7420666f756e6420696e20726571756573747300602082015250565b600061147b603f83610c69565b91506114868261141f565b604082019050919050565b600060208201905081810360008301526114aa8161146e565b9050919050565b7f4f7261636c65206d69736d617463683a2072657175657374496420646f65736e60008201527f6f74206d6161746368206f7261636c6549640000000000000000000000000000602082015250565b600061150d603283610c69565b9150611518826114b1565b604082019050919050565b6000602082019050818103600083015261153c81611500565b9050919050565b6000604082019050818103600083015261155d8185611007565b905081810360208301526115718184611007565b90509392505050565b7f4f52203200000000000000000000000000000000000000000000000000000000600082015250565b60006115b0600483610c69565b91506115bb8261157a565b602082019050919050565b60006040820190506115db6000830184610c5a565b81810360208301526115ec816115a3565b90509291505056fea2646970667358221220d7d1df978d0b5c5e92e17d7818802ec5c16a9b8f1a0a810cf554d92ec415936464736f6c63430008120033",
  "linkReferences": {},
  "deployedLinkReferences": {}
}