{
  "_format": "hh-sol-artifact-1",
  "contractName": "TestRFQRequestor",
  "sourceName": "contracts/TestRFQRequestor.sol",
  "abi": [
    {
      "inputs": [
        {
          "internalType": "address",
          "name": "o",
          "type": "address"
        }
      ],
      "stateMutability": "nonpayable",
      "type": "constructor"
    },
    {
      "anonymous": false,
      "inputs": [
        {
          "indexed": false,
          "internalType": "string",
          "name": "requestId",
          "type": "string"
        },
        {
          "indexed": false,
          "internalType": "string",
          "name": "requestUpdate",
          "type": "string"
        }
      ],
      "name": "OracleUpdate",
      "type": "event"
    },
    {
      "anonymous": false,
      "inputs": [
        {
          "indexed": false,
          "internalType": "string",
          "name": "requestId",
          "type": "string"
        },
        {
          "indexed": false,
          "internalType": "string",
          "name": "requestData",
          "type": "string"
        }
      ],
      "name": "SendOrderCalled",
      "type": "event"
    },
    {
      "anonymous": false,
      "inputs": [
        {
          "indexed": false,
          "internalType": "string",
          "name": "requestId",
          "type": "string"
        },
        {
          "indexed": false,
          "internalType": "string",
          "name": "requestData",
          "type": "string"
        }
      ],
      "name": "StartRFQCalled",
      "type": "event"
    },
    {
      "inputs": [
        {
          "internalType": "string",
          "name": "requestId",
          "type": "string"
        },
        {
          "internalType": "string",
          "name": "requestData",
          "type": "string"
        }
      ],
      "name": "sendOrder",
      "outputs": [],
      "stateMutability": "nonpayable",
      "type": "function"
    },
    {
      "inputs": [
        {
          "internalType": "string",
          "name": "requestId",
          "type": "string"
        },
        {
          "internalType": "string",
          "name": "requestData",
          "type": "string"
        }
      ],
      "name": "startRFQ",
      "outputs": [],
      "stateMutability": "nonpayable",
      "type": "function"
    },
    {
      "inputs": [
        {
          "internalType": "string",
          "name": "requestId",
          "type": "string"
        },
        {
          "internalType": "string",
          "name": "requestUpdate",
          "type": "string"
        }
      ],
      "name": "update",
      "outputs": [],
      "stateMutability": "nonpayable",
      "type": "function"
    }
  ],
  "bytecode": "0x608060405234801561001057600080fd5b50604051610890380380610890833981810160405281019061003291906100db565b806000806101000a81548173ffffffffffffffffffffffffffffffffffffffff021916908373ffffffffffffffffffffffffffffffffffffffff16021790555050610108565b600080fd5b600073ffffffffffffffffffffffffffffffffffffffff82169050919050565b60006100a88261007d565b9050919050565b6100b88161009d565b81146100c357600080fd5b50565b6000815190506100d5816100af565b92915050565b6000602082840312156100f1576100f0610078565b5b60006100ff848285016100c6565b91505092915050565b610779806101176000396000f3fe608060405234801561001057600080fd5b50600436106100415760003560e01c806311fbcd6a14610046578063898ff49414610062578063f4c84d191461007e575b600080fd5b610060600480360381019061005b9190610481565b61009a565b005b61007c60048036038101906100779190610481565b61016b565b005b61009860048036038101906100939190610481565b61025c565b005b60008060009054906101000a900473ffffffffffffffffffffffffffffffffffffffff1690508073ffffffffffffffffffffffffffffffffffffffff1663cd99917184846040518363ffffffff1660e01b81526004016100fb929190610578565b600060405180830381600087803b15801561011557600080fd5b505af1158015610129573d6000803e3d6000fd5b505050507fb325293554bf0ce6ad5d8f2a01baef32aa2de9f8a274c1d487836b22c5df2630838360405161015e929190610578565b60405180910390a1505050565b60008060009054906101000a900473ffffffffffffffffffffffffffffffffffffffff1690508073ffffffffffffffffffffffffffffffffffffffff16638e14c10984843073ffffffffffffffffffffffffffffffffffffffff1663f4c84d19306040518663ffffffff1660e01b81526004016101ec95949392919061065c565b600060405180830381600087803b15801561020657600080fd5b505af115801561021a573d6000803e3d6000fd5b505050507fafc3e5178a281c8e77694b6a29419e2bf78d1942126d3ab480e820e9062574f2838360405161024f929190610578565b60405180910390a1505050565b60008054906101000a900473ffffffffffffffffffffffffffffffffffffffff1673ffffffffffffffffffffffffffffffffffffffff163373ffffffffffffffffffffffffffffffffffffffff16146102ea576040517f08c379a00000000000000000000000000000000000000000000000000000000081526004016102e190610723565b60405180910390fd5b7f9d804437e652f63517b89addda93a976e786691dc189bbb541e514de4dae16b2828260405161031b929190610578565b60405180910390a15050565b6000604051905090565b600080fd5b600080fd5b600080fd5b600080fd5b6000601f19601f8301169050919050565b7f4e487b7100000000000000000000000000000000000000000000000000000000600052604160045260246000fd5b61038e82610345565b810181811067ffffffffffffffff821117156103ad576103ac610356565b5b80604052505050565b60006103c0610327565b90506103cc8282610385565b919050565b600067ffffffffffffffff8211156103ec576103eb610356565b5b6103f582610345565b9050602081019050919050565b82818337600083830152505050565b600061042461041f846103d1565b6103b6565b9050828152602081018484840111156104405761043f610340565b5b61044b848285610402565b509392505050565b600082601f8301126104685761046761033b565b5b8135610478848260208601610411565b91505092915050565b6000806040838503121561049857610497610331565b5b600083013567ffffffffffffffff8111156104b6576104b5610336565b5b6104c285828601610453565b925050602083013567ffffffffffffffff8111156104e3576104e2610336565b5b6104ef85828601610453565b9150509250929050565b600081519050919050565b600082825260208201905092915050565b60005b83811015610533578082015181840152602081019050610518565b60008484015250505050565b600061054a826104f9565b6105548185610504565b9350610564818560208601610515565b61056d81610345565b840191505092915050565b60006040820190508181036000830152610592818561053f565b905081810360208301526105a6818461053f565b90509392505050565b60008160201b9050919050565b60008160401b9050919050565b60006105e463ffffffff84166105de846105af565b176105bc565b905092915050565b6000808291508390509250929050565b61060682826105ec565b9250905061061482826105c9565b8352505050565b600073ffffffffffffffffffffffffffffffffffffffff82169050919050565b60006106468261061b565b9050919050565b6106568161063b565b82525050565b60006080820190508181036000830152610676818861053f565b9050818103602083015261068a818761053f565b905061069a6040830185876105fc565b6106a7606083018461064d565b9695505050505050565b7f7570646174652063616c6c6564206279206e6f6e204f7261636c6520656e746960008201527f7479000000000000000000000000000000000000000000000000000000000000602082015250565b600061070d602283610504565b9150610718826106b1565b604082019050919050565b6000602082019050818103600083015261073c81610700565b905091905056fea2646970667358221220df1f8e105350356e16bb0d1353ed5731b26180c854d5f32497d3cb7094f6780464736f6c63430008120033",
  "linkReferences": {},
  "deployedLinkReferences": {}
}